:020000020000FC
:0C0000000C9400010C9400030C9400020E
:040024000C94000434
:1002000000E048E04EBF4FE54DBF4FEF4ABB47BB54
:1002100040E04BBB48BB4FEF4DBD4FEF4CBD40ECFA
:100220004BBF4FE045BF44E049BF78940C941601A2
:0C040000003019F440E04BBB48BB1895DD
:10060000003039F401E040E04FBD44E04EBD0C94B1
:0A0610000C0300E040E04EBD189519
:100800004BB34B3371F440E04BBB48B34B3321F453
:1008100040E048BB0C94140448B3439548BB0C9487
:1008200014044BB343954BBB45E84DBD4EEE4CBD58
:02083000189519
:00000001FF
